{
  "contractName": "Owner",
  "abi": [
    {
      "inputs": [],
      "stateMutability": "nonpayable",
      "type": "constructor"
    },
    {
      "anonymous": false,
      "inputs": [
        {
          "indexed": false,
          "internalType": "address",
          "name": "actor_address",
          "type": "address"
        },
        {
          "indexed": false,
          "internalType": "string",
          "name": "role",
          "type": "string"
        },
        {
          "indexed": false,
          "internalType": "string",
          "name": "actor_name",
          "type": "string"
        }
      ],
      "name": "ACTOR_ADDED",
      "type": "event"
    },
    {
      "anonymous": false,
      "inputs": [
        {
          "indexed": false,
          "internalType": "uint256",
          "name": "productid",
          "type": "uint256"
        },
        {
          "indexed": false,
          "internalType": "address",
          "name": "distributor_address",
          "type": "address"
        }
      ],
      "name": "DISTRIBUTOR_UPDATED",
      "type": "event"
    },
    {
      "anonymous": false,
      "inputs": [
        {
          "indexed": false,
          "internalType": "uint256",
          "name": "productid",
          "type": "uint256"
        },
        {
          "indexed": false,
          "internalType": "address",
          "name": "pharmacist_address",
          "type": "address"
        }
      ],
      "name": "PHARMACIST_UPDATED",
      "type": "event"
    },
    {
      "anonymous": false,
      "inputs": [
        {
          "indexed": false,
          "internalType": "uint256",
          "name": "productid",
          "type": "uint256"
        },
        {
          "indexed": false,
          "internalType": "uint256",
          "name": "rawmaterialid",
          "type": "uint256"
        },
        {
          "indexed": false,
          "internalType": "string",
          "name": "product_name",
          "type": "string"
        },
        {
          "indexed": false,
          "internalType": "address",
          "name": "manufacturer_address",
          "type": "address"
        }
      ],
      "name": "PRODUCT_ADDED",
      "type": "event"
    },
    {
      "anonymous": false,
      "inputs": [
        {
          "indexed": false,
          "internalType": "uint256",
          "name": "rawmaterialid",
          "type": "uint256"
        },
        {
          "indexed": false,
          "internalType": "string",
          "name": "rawmaterialname",
          "type": "string"
        },
        {
          "indexed": false,
          "internalType": "address",
          "name": "supplier_address",
          "type": "address"
        }
      ],
      "name": "RAWMATERIAL_ADDED",
      "type": "event"
    },
    {
      "anonymous": false,
      "inputs": [
        {
          "indexed": false,
          "internalType": "uint256",
          "name": "productid",
          "type": "uint256"
        },
        {
          "indexed": false,
          "internalType": "address",
          "name": "wholesaler_address",
          "type": "address"
        }
      ],
      "name": "WHOLESALER_UPDATED",
      "type": "event"
    },
    {
      "inputs": [
        {
          "internalType": "string",
          "name": "_a",
          "type": "string"
        },
        {
          "internalType": "string",
          "name": "_b",
          "type": "string"
        }
      ],
      "name": "compareStrings",
      "outputs": [
        {
          "internalType": "bool",
          "name": "",
          "type": "bool"
        }
      ],
      "stateMutability": "pure",
      "type": "function"
    },
    {
      "inputs": [
        {
          "internalType": "address",
          "name": "actor_address",
          "type": "address"
        }
      ],
      "name": "getRole",
      "outputs": [
        {
          "internalType": "string",
          "name": "role",
          "type": "string"
        }
      ],
      "stateMutability": "view",
      "type": "function"
    },
    {
      "inputs": [
        {
          "internalType": "address",
          "name": "actor_address",
          "type": "address"
        },
        {
          "internalType": "string",
          "name": "role",
          "type": "string"
        },
        {
          "internalType": "string",
          "name": "actor_name",
          "type": "string"
        }
      ],
      "name": "addActor",
      "outputs": [],
      "stateMutability": "nonpayable",
      "type": "function"
    },
    {
      "inputs": [
        {
          "internalType": "uint256",
          "name": "rawmaterialid",
          "type": "uint256"
        },
        {
          "internalType": "string",
          "name": "rawmaterialname",
          "type": "string"
        }
      ],
      "name": "addRawMaterial",
      "outputs": [],
      "stateMutability": "nonpayable",
      "type": "function"
    },
    {
      "inputs": [
        {
          "internalType": "uint256",
          "name": "productid",
          "type": "uint256"
        },
        {
          "internalType": "uint256",
          "name": "rawmaterialid",
          "type": "uint256"
        },
        {
          "internalType": "string",
          "name": "product_name",
          "type": "string"
        }
      ],
      "name": "addProduct",
      "outputs": [],
      "stateMutability": "nonpayable",
      "type": "function"
    },
    {
      "inputs": [
        {
          "internalType": "uint256",
          "name": "productid",
          "type": "uint256"
        }
      ],
      "name": "addWholeSalerToProduct",
      "outputs": [],
      "stateMutability": "nonpayable",
      "type": "function"
    },
    {
      "inputs": [
        {
          "internalType": "uint256",
          "name": "productid",
          "type": "uint256"
        }
      ],
      "name": "addDistributorToProduct",
      "outputs": [],
      "stateMutability": "nonpayable",
      "type": "function"
    },
    {
      "inputs": [
        {
          "internalType": "uint256",
          "name": "productid",
          "type": "uint256"
        }
      ],
      "name": "addPharmacistToProduct",
      "outputs": [],
      "stateMutability": "nonpayable",
      "type": "function"
    },
    {
      "inputs": [
        {
          "internalType": "uint256",
          "name": "productId",
          "type": "uint256"
        }
      ],
      "name": "getProduct",
      "outputs": [
        {
          "components": [
            {
              "internalType": "uint256",
              "name": "id",
              "type": "uint256"
            },
            {
              "internalType": "uint256",
              "name": "rawmaterialid",
              "type": "uint256"
            },
            {
              "internalType": "address",
              "name": "manufacturer",
              "type": "address"
            },
            {
              "internalType": "address",
              "name": "wholesaler",
              "type": "address"
            },
            {
              "internalType": "address",
              "name": "distributor",
              "type": "address"
            },
            {
              "internalType": "address",
              "name": "pharmacist",
              "type": "address"
            }
          ],
          "internalType": "struct Product",
          "name": "product",
          "type": "tuple"
        },
        {
          "components": [
            {
              "internalType": "uint256",
              "name": "rawmaterialid",
              "type": "uint256"
            },
            {
              "internalType": "address",
              "name": "supplier",
              "type": "address"
            }
          ],
          "internalType": "struct RawMaterial",
          "name": "rawMaterial",
          "type": "tuple"
        }
      ],
      "stateMutability": "view",
      "type": "function"
    }
  ],
  "bytecode": "0x608060405234801561001057600080fd5b50336000806101000a81548173ffffffffffffffffffffffffffffffffffffffff021916908373ffffffffffffffffffffffffffffffffffffffff16021790555033600160006101000a81548173ffffffffffffffffffffffffffffffffffffffff021916908373ffffffffffffffffffffffffffffffffffffffff1602179055506128f4806100a16000396000f3fe608060405234801561001057600080fd5b50600436106100935760003560e01c806373845b0d1161006657806373845b0d1461011c578063804ee2b51461013857806395d271b314610154578063b9db15b414610170578063bed34bba146101a157610093565b8063244aeac91461009857806344276733146100b457806357814c06146100e45780635cc078fb14610100575b600080fd5b6100b260048036038101906100ad9190611da2565b6101d1565b005b6100ce60048036038101906100c99190611e2d565b610564565b6040516100db9190611eea565b60405180910390f35b6100fe60048036038101906100f99190612041565b610929565b005b61011a60048036038101906101159190611da2565b610afe565b005b61013660048036038101906101319190611da2565b610e4b565b005b610152600480360381019061014d919061209d565b6111bb565b005b61016e6004803603810190610169919061210c565b6114cf565b005b61018a60048036038101906101859190611da2565b611877565b60405161019892919061225f565b60405180910390f35b6101bb60048036038101906101b69190612289565b611ab4565b6040516101c8919061231c565b60405180910390f35b600073ffffffffffffffffffffffffffffffffffffffff163373ffffffffffffffffffffffffffffffffffffffff1603610240576040517f08c379a000000000000000000000000000000000000000000000000000000000815260040161023790612383565b60405180910390fd5b600560ff16600260003373ffffffffffffffffffffffffffffffffffffffff1673ffffffffffffffffffffffffffffffffffffffff16815260200190815260200160002060009054906101000a900460ff1660ff16146102d5576040517f08c379a00000000000000000000000000000000000000000000000000000000081526004016102cc90612415565b60405180910390fd5b60006003600083815260200190815260200160002090506040518060c00160405280838152602001826001015481526020018260020160009054906101000a900473ffffffffffffffffffffffffffffffffffffffff1673ffffffffffffffffffffffffffffffffffffffff1681526020018260030160009054906101000a900473ffffffffffffffffffffffffffffffffffffffff1673ffffffffffffffffffffffffffffffffffffffff1681526020018260040160009054906101000a900473ffffffffffffffffffffffffffffffffffffffff1673ffffffffffffffffffffffffffffffffffffffff1681526020013373ffffffffffffffffffffffffffffffffffffffff1681525060036000848152602001908152602001600020600082015181600001556020820151816001015560408201518160020160006101000a81548173ffffffffffffffffffffffffffffffffffffffff021916908373ffffffffffffffffffffffffffffffffffffffff16021790555060608201518160030160006101000a81548173ffffffffffffffffffffffffffffffffffffffff021916908373ffffffffffffffffffffffffffffffffffffffff16021790555060808201518160040160006101000a81548173ffffffffffffffffffffffffffffffffffffffff021916908373ffffffffffffffffffffffffffffffffffffffff16021790555060a08201518160050160006101000a81548173ffffffffffffffffffffffffffffffffffffffff021916908373ffffffffffffffffffffffffffffffffffffffff1602179055509050507f6e7e74b0f0671ec2602bbd8e3a23c01efbe3e83bffa9a132dace4397a72d881b8233604051610558929190612453565b60405180910390a15050565b60608173ffffffffffffffffffffffffffffffffffffffff16600160009054906101000a900473ffffffffffffffffffffffffffffffffffffffff1673ffffffffffffffffffffffffffffffffffffffff16036105f8576040518060400160405280600381526020017f44524100000000000000000000000000000000000000000000000000000000008152509050610924565b600160ff16600260008473ffffffffffffffffffffffffffffffffffffffff1673ffffffffffffffffffffffffffffffffffffffff16815260200190815260200160002060009054906101000a900460ff1660ff160361068f576040518060400160405280600881526020017f535550504c4945520000000000000000000000000000000000000000000000008152509050610924565b600260ff16600260008473ffffffffffffffffffffffffffffffffffffffff1673ffffffffffffffffffffffffffffffffffffffff16815260200190815260200160002060009054906101000a900460ff1660ff1603610726576040518060400160405280600c81526020017f4d414e55464143545552455200000000000000000000000000000000000000008152509050610924565b600360ff16600260008473ffffffffffffffffffffffffffffffffffffffff1673ffffffffffffffffffffffffffffffffffffffff16815260200190815260200160002060009054906101000a900460ff1660ff16036107bd576040518060400160405280600a81526020017f57484f4c4553414c4552000000000000000000000000000000000000000000008152509050610924565b600460ff16600260008473ffffffffffffffffffffffffffffffffffffffff1673ffffffffffffffffffffffffffffffffffffffff16815260200190815260200160002060009054906101000a900460ff1660ff1603610854576040518060400160405280600b81526020017f4449535452494255544f520000000000000000000000000000000000000000008152509050610924565b600560ff16600260008473ffffffffffffffffffffffffffffffffffffffff1673ffffffffffffffffffffffffffffffffffffffff16815260200190815260200160002060009054906101000a900460ff1660ff16036108eb576040518060400160405280600a81526020017f504841524d4143495354000000000000000000000000000000000000000000008152509050610924565b6040518060400160405280600781526020017f44454641554c540000000000000000000000000000000000000000000000000081525090505b919050565b600073ffffffffffffffffffffffffffffffffffffffff163373ffffffffffffffffffffffffffffffffffffffff1603610998576040517f08c379a000000000000000000000000000000000000000000000000000000000815260040161098f90612383565b60405180910390fd5b600160ff16600260003373ffffffffffffffffffffffffffffffffffffffff1673ffffffffffffffffffffffffffffffffffffffff16815260200190815260200160002060009054906101000a900460ff1660ff1614610a2d576040517f08c379a0000000000000000000000000000000000000000000000000000000008152600401610a24906124ee565b60405180910390fd5b60405180604001604052808381526020013373ffffffffffffffffffffffffffffffffffffffff16815250600460008481526020019081526020016000206000820151816000015560208201518160010160006101000a81548173ffffffffffffffffffffffffffffffffffffffff021916908373ffffffffffffffffffffffffffffffffffffffff1602179055509050507fb5eac941e10e15c3edc8eb95defc49c08cc1449585902f960e4ddcb5de91881c828233604051610af29392919061250e565b60405180910390a15050565b600073ffffffffffffffffffffffffffffffffffffffff163373ffffffffffffffffffffffffffffffffffffffff1603610b6d576040517f08c379a0000000000000000000000000000000000000000000000000000000008152600401610b6490612383565b60405180910390fd5b600360ff16600260003373ffffffffffffffffffffffffffffffffffffffff1673ffffffffffffffffffffffffffffffffffffffff16815260200190815260200160002060009054906101000a900460ff1660ff1614610c02576040517f08c379a0000000000000000000000000000000000000000000000000000000008152600401610bf9906125be565b60405180910390fd5b60006003600083815260200190815260200160002090506040518060c00160405280838152602001826001015481526020018260020160009054906101000a900473ffffffffffffffffffffffffffffffffffffffff1673ffffffffffffffffffffffffffffffffffffffff1681526020013373ffffffffffffffffffffffffffffffffffffffff168152602001600073ffffffffffffffffffffffffffffffffffffffff168152602001600073ffffffffffffffffffffffffffffffffffffffff1681525060036000848152602001908152602001600020600082015181600001556020820151816001015560408201518160020160006101000a81548173ffffffffffffffffffffffffffffffffffffffff021916908373ffffffffffffffffffffffffffffffffffffffff16021790555060608201518160030160006101000a81548173ffffffffffffffffffffffffffffffffffffffff021916908373ffffffffffffffffffffffffffffffffffffffff16021790555060808201518160040160006101000a81548173ffffffffffffffffffffffffffffffffffffffff021916908373ffffffffffffffffffffffffffffffffffffffff16021790555060a08201518160050160006101000a81548173ffffffffffffffffffffffffffffffffffffffff021916908373ffffffffffffffffffffffffffffffffffffffff1602179055509050507fa04dcb9e018f7d36f57998d3529989fe9acfcae2f139b3b396066de01f2ccd0a8233604051610e3f929190612453565b60405180910390a15050565b600073ffffffffffffffffffffffffffffffffffffffff163373ffffffffffffffffffffffffffffffffffffffff1603610eba576040517f08c379a0000000000000000000000000000000000000000000000000000000008152600401610eb190612383565b60405180910390fd5b600460ff16600260003373ffffffffffffffffffffffffffffffffffffffff1673ffffffffffffffffffffffffffffffffffffffff16815260200190815260200160002060009054906101000a900460ff1660ff1614610f4f576040517f08c379a0000000000000000000000000000000000000000000000000000000008152600401610f4690612650565b60405180910390fd5b60006003600083815260200190815260200160002090506040518060c00160405280838152602001826001015481526020018260020160009054906101000a900473ffffffffffffffffffffffffffffffffffffffff1673ffffffffffffffffffffffffffffffffffffffff1681526020018260030160009054906101000a900473ffffffffffffffffffffffffffffffffffffffff1673ffffffffffffffffffffffffffffffffffffffff1681526020013373ffffffffffffffffffffffffffffffffffffffff168152602001600073ffffffffffffffffffffffffffffffffffffffff1681525060036000848152602001908152602001600020600082015181600001556020820151816001015560408201518160020160006101000a81548173ffffffffffffffffffffffffffffffffffffffff021916908373ffffffffffffffffffffffffffffffffffffffff16021790555060608201518160030160006101000a81548173ffffffffffffffffffffffffffffffffffffffff021916908373ffffffffffffffffffffffffffffffffffffffff16021790555060808201518160040160006101000a81548173ffffffffffffffffffffffffffffffffffffffff021916908373ffffffffffffffffffffffffffffffffffffffff16021790555060a08201518160050160006101000a81548173ffffffffffffffffffffffffffffffffffffffff021916908373ffffffffffffffffffffffffffffffffffffffff1602179055509050507f032a1fd3eb876d6548eddf71efb7b49c00ef5395f6cd69cf9c7cbc24fcabd79782336040516111af929190612453565b60405180910390a15050565b600073ffffffffffffffffffffffffffffffffffffffff163373ffffffffffffffffffffffffffffffffffffffff160361122a576040517f08c379a000000000000000000000000000000000000000000000000000000000815260040161122190612383565b60405180910390fd5b600260ff16600260003373ffffffffffffffffffffffffffffffffffffffff1673ffffffffffffffffffffffffffffffffffffffff16815260200190815260200160002060009054906101000a900460ff1660ff16146112bf576040517f08c379a00000000000000000000000000000000000000000000000000000000081526004016112b6906126e2565b60405180910390fd5b6040518060c001604052808481526020018381526020013373ffffffffffffffffffffffffffffffffffffffff168152602001600073ffffffffffffffffffffffffffffffffffffffff168152602001600073ffffffffffffffffffffffffffffffffffffffff168152602001600073ffffffffffffffffffffffffffffffffffffffff1681525060036000858152602001908152602001600020600082015181600001556020820151816001015560408201518160020160006101000a81548173ffffffffffffffffffffffffffffffffffffffff021916908373ffffffffffffffffffffffffffffffffffffffff16021790555060608201518160030160006101000a81548173ffffffffffffffffffffffffffffffffffffffff021916908373ffffffffffffffffffffffffffffffffffffffff16021790555060808201518160040160006101000a81548173ffffffffffffffffffffffffffffffffffffffff021916908373ffffffffffffffffffffffffffffffffffffffff16021790555060a08201518160050160006101000a81548173ffffffffffffffffffffffffffffffffffffffff021916908373ffffffffffffffffffffffffffffffffffffffff1602179055509050507fe2fa6719e49bf2b019555aa2f15da68fb6556634bad8bcb61eaa3f4bc7a535fa838383336040516114c29493929190612702565b60405180910390a1505050565b600160009054906101000a900473ffffffffffffffffffffffffffffffffffffffff1673ffffffffffffffffffffffffffffffffffffffff163373ffffffffffffffffffffffffffffffffffffffff161461155f576040517f08c379a00000000000000000000000000000000000000000000000000000000081526004016115569061279a565b60405180910390fd5b600073ffffffffffffffffffffffffffffffffffffffff163373ffffffffffffffffffffffffffffffffffffffff16036115ce576040517f08c379a00000000000000000000000000000000000000000000000000000000081526004016115c590612383565b60405180910390fd5b82600073ffffffffffffffffffffffffffffffffffffffff168173ffffffffffffffffffffffffffffffffffffffff160361163e576040517f08c379a000000000000000000000000000000000000000000000000000000000815260040161163590612383565b60405180910390fd5b8261167e816040518060400160405280600881526020017f535550504c494552000000000000000000000000000000000000000000000000815250611ab4565b806116c457506116c3816040518060400160405280600c81526020017f4d414e5546414354555245520000000000000000000000000000000000000000815250611ab4565b5b8061170a5750611709816040518060400160405280600a81526020017f57484f4c4553414c455200000000000000000000000000000000000000000000815250611ab4565b5b80611750575061174f816040518060400160405280600b81526020017f4449535452494255544f52000000000000000000000000000000000000000000815250611ab4565b5b806117965750611795816040518060400160405280600a81526020017f504841524d414349535400000000000000000000000000000000000000000000815250611ab4565b5b6117d5576040517f08c379a00000000000000000000000000000000000000000000000000000000081526004016117cc90612806565b60405180910390fd5b6117de84611b0d565b600260008773ffffffffffffffffffffffffffffffffffffffff1673ffffffffffffffffffffffffffffffffffffffff16815260200190815260200160002060006101000a81548160ff021916908360ff1602179055507ffa5dd1396d09f492eeda494100cb05106c3f24d7cdf7e964968817425eb873e485858560405161186893929190612826565b60405180910390a15050505050565b61187f611c9a565b611887611d28565b600360008481526020019081526020016000206004600060036000878152602001908152602001600020600101548152602001908152602001600020816040518060c001604052908160008201548152602001600182015481526020016002820160009054906101000a900473ffffffffffffffffffffffffffffffffffffffff1673ffffffffffffffffffffffffffffffffffffffff1673ffffffffffffffffffffffffffffffffffffffff1681526020016003820160009054906101000a900473ffffffffffffffffffffffffffffffffffffffff1673ffffffffffffffffffffffffffffffffffffffff1673ffffffffffffffffffffffffffffffffffffffff1681526020016004820160009054906101000a900473ffffffffffffffffffffffffffffffffffffffff1673ffffffffffffffffffffffffffffffffffffffff1673ffffffffffffffffffffffffffffffffffffffff1681526020016005820160009054906101000a900473ffffffffffffffffffffffffffffffffffffffff1673ffffffffffffffffffffffffffffffffffffffff1673ffffffffffffffffffffffffffffffffffffffff1681525050915080604051806040016040529081600082015481526020016001820160009054906101000a900473ffffffffffffffffffffffffffffffffffffffff1673ffffffffffffffffffffffffffffffffffffffff1673ffffffffffffffffffffffffffffffffffffffff1681525050905091509150915091565b600081604051602001611ac791906128a7565b6040516020818303038152906040528051906020012083604051602001611aee91906128a7565b6040516020818303038152906040528051906020012014905092915050565b6000611b4e826040518060400160405280600881526020017f535550504c494552000000000000000000000000000000000000000000000000815250611ab4565b15611b5c5760019050611c95565b611b9b826040518060400160405280600c81526020017f4d414e5546414354555245520000000000000000000000000000000000000000815250611ab4565b15611ba95760029050611c95565b611be8826040518060400160405280600a81526020017f57484f4c4553414c455200000000000000000000000000000000000000000000815250611ab4565b15611bf65760039050611c95565b611c35826040518060400160405280600b81526020017f4449535452494255544f52000000000000000000000000000000000000000000815250611ab4565b15611c435760049050611c95565b611c82826040518060400160405280600a81526020017f504841524d414349535400000000000000000000000000000000000000000000815250611ab4565b15611c905760059050611c95565b600090505b919050565b6040518060c001604052806000815260200160008152602001600073ffffffffffffffffffffffffffffffffffffffff168152602001600073ffffffffffffffffffffffffffffffffffffffff168152602001600073ffffffffffffffffffffffffffffffffffffffff168152602001600073ffffffffffffffffffffffffffffffffffffffff1681525090565b604051806040016040528060008152602001600073ffffffffffffffffffffffffffffffffffffffff1681525090565b6000604051905090565b600080fd5b600080fd5b6000819050919050565b611d7f81611d6c565b8114611d8a57600080fd5b50565b600081359050611d9c81611d76565b92915050565b600060208284031215611db857611db7611d62565b5b6000611dc684828501611d8d565b91505092915050565b600073ffffffffffffffffffffffffffffffffffffffff82169050919050565b6000611dfa82611dcf565b9050919050565b611e0a81611def565b8114611e1557600080fd5b50565b600081359050611e2781611e01565b92915050565b600060208284031215611e4357611e42611d62565b5b6000611e5184828501611e18565b91505092915050565b600081519050919050565b600082825260208201905092915050565b60005b83811015611e94578082015181840152602081019050611e79565b60008484015250505050565b6000601f19601f8301169050919050565b6000611ebc82611e5a565b611ec68185611e65565b9350611ed6818560208601611e76565b611edf81611ea0565b840191505092915050565b60006020820190508181036000830152611f048184611eb1565b905092915050565b600080fd5b600080fd5b7f4e487b7100000000000000000000000000000000000000000000000000000000600052604160045260246000fd5b611f4e82611ea0565b810181811067ffffffffffffffff82111715611f6d57611f6c611f16565b5b80604052505050565b6000611f80611d58565b9050611f8c8282611f45565b919050565b600067ffffffffffffffff821115611fac57611fab611f16565b5b611fb582611ea0565b9050602081019050919050565b82818337600083830152505050565b6000611fe4611fdf84611f91565b611f76565b90508281526020810184848401111561200057611fff611f11565b5b61200b848285611fc2565b509392505050565b600082601f83011261202857612027611f0c565b5b8135612038848260208601611fd1565b91505092915050565b6000806040838503121561205857612057611d62565b5b600061206685828601611d8d565b925050602083013567ffffffffffffffff81111561208757612086611d67565b5b61209385828601612013565b9150509250929050565b6000806000606084860312156120b6576120b5611d62565b5b60006120c486828701611d8d565b93505060206120d586828701611d8d565b925050604084013567ffffffffffffffff8111156120f6576120f5611d67565b5b61210286828701612013565b9150509250925092565b60008060006060848603121561212557612124611d62565b5b600061213386828701611e18565b935050602084013567ffffffffffffffff81111561215457612153611d67565b5b61216086828701612013565b925050604084013567ffffffffffffffff81111561218157612180611d67565b5b61218d86828701612013565b9150509250925092565b6121a081611d6c565b82525050565b6121af81611def565b82525050565b60c0820160008201516121cb6000850182612197565b5060208201516121de6020850182612197565b5060408201516121f160408501826121a6565b50606082015161220460608501826121a6565b50608082015161221760808501826121a6565b5060a082015161222a60a08501826121a6565b50505050565b6040820160008201516122466000850182612197565b50602082015161225960208501826121a6565b50505050565b60006101008201905061227560008301856121b5565b61228260c0830184612230565b9392505050565b600080604083850312156122a05761229f611d62565b5b600083013567ffffffffffffffff8111156122be576122bd611d67565b5b6122ca85828601612013565b925050602083013567ffffffffffffffff8111156122eb576122ea611d67565b5b6122f785828601612013565b9150509250929050565b60008115159050919050565b61231681612301565b82525050565b6000602082019050612331600083018461230d565b92915050565b7f5a65726f2061646472657373206e6f7420616c6c6f7765640000000000000000600082015250565b600061236d601883611e65565b915061237882612337565b602082019050919050565b6000602082019050818103600083015261239c81612360565b9050919050565b7f4f6e6c7920506861726d61636973742063616e2063616c6c207468697320667560008201527f6e6374696f6e2e00000000000000000000000000000000000000000000000000602082015250565b60006123ff602783611e65565b915061240a826123a3565b604082019050919050565b6000602082019050818103600083015261242e816123f2565b9050919050565b61243e81611d6c565b82525050565b61244d81611def565b82525050565b60006040820190506124686000830185612435565b6124756020830184612444565b9392505050565b7f4f6e6c7920537570706c6965722063616e2063616c6c20746869732066756e6360008201527f74696f6e2e000000000000000000000000000000000000000000000000000000602082015250565b60006124d8602583611e65565b91506124e38261247c565b604082019050919050565b60006020820190508181036000830152612507816124cb565b9050919050565b60006060820190506125236000830186612435565b81810360208301526125358185611eb1565b90506125446040830184612444565b949350505050565b7f4f6e6c792057686f6c6573616c65722063616e2063616c6c207468697320667560008201527f6e6374696f6e2e00000000000000000000000000000000000000000000000000602082015250565b60006125a8602783611e65565b91506125b38261254c565b604082019050919050565b600060208201905081810360008301526125d78161259b565b9050919050565b7f4f6e6c79204469737472696275746f722063616e2063616c6c2074686973206660008201527f756e6374696f6e2e000000000000000000000000000000000000000000000000602082015250565b600061263a602883611e65565b9150612645826125de565b604082019050919050565b600060208201905081810360008301526126698161262d565b9050919050565b7f4f6e6c79204d616e7566616374757265722063616e2063616c6c20746869732060008201527f66756e6374696f6e2e0000000000000000000000000000000000000000000000602082015250565b60006126cc602983611e65565b91506126d782612670565b604082019050919050565b600060208201905081810360008301526126fb816126bf565b9050919050565b60006080820190506127176000830187612435565b6127246020830186612435565b81810360408301526127368185611eb1565b90506127456060830184612444565b95945050505050565b7f4f6e6c79204452412063616e2063616c6c20746869732066756e6374696f6e2e600082015250565b6000612784602083611e65565b915061278f8261274e565b602082019050919050565b600060208201905081810360008301526127b381612777565b9050919050565b7f4e6f7420612076616c696420726f6c6500000000000000000000000000000000600082015250565b60006127f0601083611e65565b91506127fb826127ba565b602082019050919050565b6000602082019050818103600083015261281f816127e3565b9050919050565b600060608201905061283b6000830186612444565b818103602083015261284d8185611eb1565b905081810360408301526128618184611eb1565b9050949350505050565b600081905092915050565b600061288182611e5a565b61288b818561286b565b935061289b818560208601611e76565b80840191505092915050565b60006128b38284612876565b91508190509291505056fea26469706673582212207eadb71d4b0e29d541b1c92a6b588a4bcbf2d6bbdb90b353ea16e6e392c82fcd64736f6c63430008130033",
  "immutableReferences": {},
  "source": "// SPDX-License-Identifier: UNLICENSED\r\npragma solidity ^0.8.0;\r\n\r\n//import \"truffle/console.sol\";\r\n\r\ncontract Owner{\r\n    address owner; \r\n    address dra_address;\r\n    mapping(address => uint8) actors_mapping;\r\n    mapping(uint => Product) products_mapping;\r\n    mapping(uint => RawMaterial) rawmaterial_mapping;\r\n    uint8 constant DRA = 100;\r\n    uint8 constant SUPPLIER = 1;\r\n    uint8 constant MANUFACTURER = 2;\r\n    uint8 constant WHOLESALER = 3;\r\n    uint8 constant DISTRIBUTOR = 4;\r\n    uint8 constant PHARMACIST = 5; \r\n\r\n    event ACTOR_ADDED(address actor_address, string role, string actor_name);\r\n    event PRODUCT_ADDED(uint productid, uint rawmaterialid ,string product_name, address manufacturer_address);\r\n    event WHOLESALER_UPDATED(uint productid, address wholesaler_address);\r\n    event DISTRIBUTOR_UPDATED(uint productid, address distributor_address);\r\n    event PHARMACIST_UPDATED(uint productid, address pharmacist_address);\r\n    event RAWMATERIAL_ADDED(uint rawmaterialid, string rawmaterialname, address supplier_address);\r\n\r\n    constructor(){\r\n        owner = msg.sender;\r\n        dra_address = msg.sender;\r\n    }\r\n\r\n    modifier onlyValidAddress{\r\n        require(\r\n            msg.sender != address(0),\r\n            \"Zero address not allowed\"\r\n        );\r\n        _;\r\n    }\r\n    modifier onlyValidActorAddress(address actor_address){\r\n        require(\r\n            actor_address != address(0),\r\n            \"Zero address not allowed\"\r\n        );\r\n        _;\r\n    }\r\n    modifier onlyOwner{\r\n        require(\r\n            msg.sender != owner,\r\n            \"Only owner can call this function.\"\r\n        );\r\n        _;\r\n    }\r\n    modifier onlyDRA{\r\n        require(\r\n          msg.sender == dra_address,\r\n          \"Only DRA can call this function.\"  \r\n        );\r\n        _;\r\n    }\r\n    modifier onlySupplier{\r\n        require(\r\n            actors_mapping[msg.sender] == SUPPLIER,\r\n            \"Only Supplier can call this function.\"\r\n        );\r\n        _;\r\n    }\r\n    modifier onlyManufacturer{\r\n        require(\r\n            actors_mapping[msg.sender] == MANUFACTURER,\r\n            \"Only Manufacturer can call this function.\"\r\n        );\r\n        _;\r\n    }\r\n    modifier onlyWholesaler{\r\n        require(\r\n            actors_mapping[msg.sender] == WHOLESALER,\r\n            \"Only Wholesaler can call this function.\"\r\n        );\r\n        _;\r\n    }\r\n    modifier onlyDistributor{\r\n        require(\r\n            actors_mapping[msg.sender] == DISTRIBUTOR,\r\n            \"Only Distributor can call this function.\"\r\n        );\r\n        _;\r\n    }\r\n    modifier onlyPharmacist{\r\n        require(\r\n            actors_mapping[msg.sender] == PHARMACIST,\r\n            \"Only Pharmacist can call this function.\"\r\n        );\r\n        _;\r\n    }\r\n    modifier onlyValidRoles(string memory role){\r\n        require(\r\n            compareStrings(role,\"SUPPLIER\") || \r\n            compareStrings(role,\"MANUFACTURER\") ||\r\n            compareStrings(role,\"WHOLESALER\") ||\r\n            compareStrings(role,\"DISTRIBUTOR\") ||\r\n            compareStrings(role,\"PHARMACIST\"),\r\n            \"Not a valid role\"\r\n        );\r\n        _;\r\n    }\r\n    function compareStrings(string memory _a, string memory _b) public pure returns(bool) {\r\n        return keccak256(abi.encodePacked(_a)) == keccak256(abi.encodePacked(_b));\r\n    }\r\n    function getRole(address actor_address) public view returns (string memory role) {\r\n        if(dra_address == actor_address)\r\n            return \"DRA\";\r\n        if(actors_mapping[actor_address] == SUPPLIER)\r\n                return \"SUPPLIER\";\r\n        else if(actors_mapping[actor_address] == MANUFACTURER)\r\n                return \"MANUFACTURER\";\r\n        else if(actors_mapping[actor_address] == WHOLESALER)\r\n                return \"WHOLESALER\";\r\n        else if(actors_mapping[actor_address] == DISTRIBUTOR)\r\n                return \"DISTRIBUTOR\";\r\n        else if(actors_mapping[actor_address] == PHARMACIST)\r\n                return \"PHARMACIST\";\r\n        else\r\n                return \"DEFAULT\";\r\n    }\r\n    function getInternalRole(string memory role) private pure returns (uint8 internalrole) {\r\n        if(compareStrings(role, \"SUPPLIER\"))\r\n                return SUPPLIER;\r\n        else if(compareStrings(role, \"MANUFACTURER\"))\r\n                return MANUFACTURER;\r\n        else if(compareStrings(role, \"WHOLESALER\"))\r\n                return WHOLESALER;\r\n        else if(compareStrings(role, \"DISTRIBUTOR\"))\r\n                return DISTRIBUTOR;\r\n        else if(compareStrings(role, \"PHARMACIST\"))\r\n                return PHARMACIST;\r\n        else\r\n                return 0;\r\n    }\r\n\r\n    function addActor(address actor_address, string memory role, string memory actor_name) public \r\n            onlyDRA \r\n            onlyValidAddress \r\n            onlyValidActorAddress(actor_address)\r\n            onlyValidRoles(role){\r\n        actors_mapping[actor_address] = getInternalRole(role);\r\n        emit ACTOR_ADDED(actor_address, role, actor_name);\r\n    }\r\n\r\n    function addRawMaterial(uint rawmaterialid, string memory rawmaterialname) public \r\n        onlyValidAddress\r\n        onlySupplier{\r\n        rawmaterial_mapping[rawmaterialid] = RawMaterial(rawmaterialid,msg.sender);\r\n        emit RAWMATERIAL_ADDED(rawmaterialid, rawmaterialname, msg.sender);\r\n    }\r\n\r\n    function addProduct(uint productid,uint rawmaterialid, string memory product_name) public \r\n        onlyValidAddress\r\n        onlyManufacturer{\r\n        products_mapping[productid] = Product(productid,rawmaterialid,msg.sender,address(0),address(0),address(0));\r\n        emit PRODUCT_ADDED(productid, rawmaterialid, product_name, msg.sender);\r\n    }\r\n\r\n    function addWholeSalerToProduct(uint productid) public \r\n        onlyValidAddress\r\n        onlyWholesaler{\r\n        Product storage productObj = products_mapping[productid];\r\n        products_mapping[productid] = Product(productid,\r\n                                        productObj.rawmaterialid,\r\n                                        productObj.manufacturer,\r\n                                        msg.sender,\r\n                                        address(0),\r\n                                        address(0));\r\n        emit WHOLESALER_UPDATED(productid, msg.sender);\r\n    }\r\n    function addDistributorToProduct(uint productid) public \r\n        onlyValidAddress\r\n        onlyDistributor{\r\n        Product storage productObj = products_mapping[productid];\r\n        products_mapping[productid] = Product(productid,\r\n                                        productObj.rawmaterialid,\r\n                                        productObj.manufacturer,\r\n                                        productObj.wholesaler,\r\n                                        msg.sender,\r\n                                        address(0));\r\n        emit DISTRIBUTOR_UPDATED(productid, msg.sender);\r\n    }\r\n\r\n    function addPharmacistToProduct(uint productid) public \r\n        onlyValidAddress\r\n        onlyPharmacist{\r\n        Product storage productObj = products_mapping[productid];\r\n        products_mapping[productid] = Product(productid,\r\n                                        productObj.rawmaterialid,\r\n                                        productObj.manufacturer,\r\n                                        productObj.wholesaler,\r\n                                        productObj.distributor,\r\n                                        msg.sender);\r\n        emit PHARMACIST_UPDATED(productid, msg.sender);\r\n    }\r\n    function getProduct(uint productId) public view returns(Product memory product,RawMaterial memory rawMaterial){\r\n        return (products_mapping[productId], rawmaterial_mapping[products_mapping[productId].rawmaterialid]);\r\n    }\r\n}\r\n\r\nstruct Product{\r\n    uint id;\r\n    uint rawmaterialid;\r\n    address manufacturer;\r\n    address wholesaler;\r\n    address distributor;\r\n    address pharmacist;\r\n}\r\nstruct RawMaterial{\r\n    uint rawmaterialid;\r\n    address supplier;\r\n}",
  "sourcePath": "D:\\Capstone Project\\SupplyChain-Truffle\\contracts\\Owner.sol",
  "compiler": {
    "name": "solc",
    "version": "0.8.19+commit.7dd6d404.Emscripten.clang"
  },
  "schemaVersion": "3.4.13",
  "updatedAt": "2024-05-18T18:40:09.666Z",
  "devdoc": {
    "kind": "dev",
    "methods": {},
    "version": 1
  },
  "userdoc": {
    "kind": "user",
    "methods": {},
    "version": 1
  }
}